{
  "contractName": "ProcessorRole",
  "abi": [
    {
      "inputs": [],
      "payable": false,
      "stateMutability": "nonpayable",
      "type": "constructor",
      "signature": "constructor"
    },
    {
      "anonymous": false,
      "inputs": [
        {
          "indexed": true,
          "name": "account",
          "type": "address"
        }
      ],
      "name": "ProcessorAdded",
      "type": "event",
      "signature": "0x05c1b3ccb9c2d46f702e834ef4d1089736770e1dc99594e4eed7d32156c58099"
    },
    {
      "anonymous": false,
      "inputs": [
        {
          "indexed": true,
          "name": "account",
          "type": "address"
        }
      ],
      "name": "ProcessorRemoved",
      "type": "event",
      "signature": "0xbcd349bbef1d62ad73e4f031a0ef1fa29c49ddcd0bac9f7a86bb4a425e032222"
    },
    {
      "constant": true,
      "inputs": [
        {
          "name": "account",
          "type": "address"
        }
      ],
      "name": "isProcessor",
      "outputs": [
        {
          "name": "",
          "type": "bool"
        }
      ],
      "payable": false,
      "stateMutability": "view",
      "type": "function",
      "signature": "0x00091988"
    },
    {
      "constant": false,
      "inputs": [
        {
          "name": "account",
          "type": "address"
        }
      ],
      "name": "addProcessor",
      "outputs": [],
      "payable": false,
      "stateMutability": "nonpayable",
      "type": "function",
      "signature": "0x25460753"
    },
    {
      "constant": false,
      "inputs": [],
      "name": "renounceProcessor",
      "outputs": [],
      "payable": false,
      "stateMutability": "nonpayable",
      "type": "function",
      "signature": "0x47fd0987"
    }
  ],
  "bytecode": "0x608060405234801561001057600080fd5b506100293361002e640100000000026401000000009004565b6101e8565b61004f816000610095640100000000026102a0179091906401000000009004565b8073ffffffffffffffffffffffffffffffffffffffff167f05c1b3ccb9c2d46f702e834ef4d1089736770e1dc99594e4eed7d32156c5809960405160405180910390a250565b600073ffffffffffffffffffffffffffffffffffffffff168173ffffffffffffffffffffffffffffffffffffffff16141515156100d157600080fd5b6100ea8282610154640100000000026401000000009004565b1515156100f657600080fd5b60018260000160008373ffffffffffffffffffffffffffffffffffffffff1673ffffffffffffffffffffffffffffffffffffffff16815260200190815260200160002060006101000a81548160ff0219169083151502179055505050565b60008073ffffffffffffffffffffffffffffffffffffffff168273ffffffffffffffffffffffffffffffffffffffff161415151561019157600080fd5b8260000160008373ffffffffffffffffffffffffffffffffffffffff1673ffffffffffffffffffffffffffffffffffffffff16815260200190815260200160002060009054906101000a900460ff16905092915050565b61042b806101f76000396000f300608060405260043610610056576000357c0100000000000000000000000000000000000000000000000000000000900463ffffffff1680620919881461005b57806325460753146100b657806347fd0987146100f9575b600080fd5b34801561006757600080fd5b5061009c600480360381019080803573ffffffffffffffffffffffffffffffffffffffff169060200190929190505050610110565b604051808215151515815260200191505060405180910390f35b3480156100c257600080fd5b506100f7600480360381019080803573ffffffffffffffffffffffffffffffffffffffff16906020019092919050505061012d565b005b34801561010557600080fd5b5061010e61014d565b005b600061012682600061015890919063ffffffff16565b9050919050565b61013633610110565b151561014157600080fd5b61014a816101ec565b50565b61015633610246565b565b60008073ffffffffffffffffffffffffffffffffffffffff168273ffffffffffffffffffffffffffffffffffffffff161415151561019557600080fd5b8260000160008373ffffffffffffffffffffffffffffffffffffffff1673ffffffffffffffffffffffffffffffffffffffff16815260200190815260200160002060009054906101000a900460ff16905092915050565b6102008160006102a090919063ffffffff16565b8073ffffffffffffffffffffffffffffffffffffffff167f05c1b3ccb9c2d46f702e834ef4d1089736770e1dc99594e4eed7d32156c5809960405160405180910390a250565b61025a81600061035090919063ffffffff16565b8073ffffffffffffffffffffffffffffffffffffffff167fbcd349bbef1d62ad73e4f031a0ef1fa29c49ddcd0bac9f7a86bb4a425e03222260405160405180910390a250565b600073ffffffffffffffffffffffffffffffffffffffff168173ffffffffffffffffffffffffffffffffffffffff16141515156102dc57600080fd5b6102e68282610158565b1515156102f257600080fd5b60018260000160008373ffffffffffffffffffffffffffffffffffffffff1673ffffffffffffffffffffffffffffffffffffffff16815260200190815260200160002060006101000a81548160ff0219169083151502179055505050565b600073ffffffffffffffffffffffffffffffffffffffff168173ffffffffffffffffffffffffffffffffffffffff161415151561038c57600080fd5b6103968282610158565b15156103a157600080fd5b60008260000160008373ffffffffffffffffffffffffffffffffffffffff1673ffffffffffffffffffffffffffffffffffffffff16815260200190815260200160002060006101000a81548160ff02191690831515021790555050505600a165627a7a72305820b5adecf0d121b1da711bd9600acdefdabfc051fde6213add9736f36bfb9487f50029",
  "source": "pragma solidity ^0.4.24;\n\n// Import the library 'Roles'\nimport \"./Roles.sol\";\n\n// Define a contract 'processorRole' to manage this role - add, remove, check\ncontract ProcessorRole {\n  using Roles for Roles.Role;\n  // Define 2 events, one for Adding, and other for Removing\n\n  event ProcessorAdded(address indexed account);\n  event ProcessorRemoved(address indexed account);\n  // Define a struct 'processors' by inheriting from 'Roles' library, struct Role\n\n  Roles.Role processors;\n  // In the constructor make the address that deploys this contract the 1st processor\n  constructor() public {\n    _addProcessor(msg.sender);\n  }\n\n  // Define a modifier that checks to see if msg.sender has the appropriate role\n  modifier onlyProcessor() {\n    require(isProcessor(msg.sender));\n    _;\n  }\n\n  // Define a function 'isprocessor' to check this role\n  function isProcessor(address account) public view returns (bool) {\n    return processors.has(account);\n  }\n\n  // Define a function 'addprocessor' that adds this role\n  function addProcessor(address account) public onlyProcessor {\n    _addProcessor(account);\n  }\n\n  // Define a function 'renounceprocessor' to renounce this role\n  function renounceProcessor() public {\n    _removeProcessor(msg.sender);\n  }\n\n  // Define an internal function '_addprocessor' to add this role, called by 'addprocessor'\n  function _addProcessor(address account) internal {\n    processors.add(account);\n    emit ProcessorAdded(account);\n  }\n\n  // Define an internal function '_removeprocessor' to remove this role, called by 'removeprocessor'\n  function _removeProcessor(address account) internal {\n    processors.remove(account);\n    emit ProcessorRemoved(account);\n  }\n}\n",
  "sourcePath": "/Users/husni/Projects/nd1309-Project-6b-Example-Template/project-6/contracts/itemaccesscontrol/ProcessorRole.sol",
  "compiler": {
    "name": "solc",
    "version": "0.4.24+commit.e67f0147.Emscripten.clang"
  },
  "schemaVersion": "3.0.5",
  "updatedAt": "2019-04-14T18:28:48.225Z",
  "devdoc": {
    "methods": {}
  },
  "userdoc": {
    "methods": {}
  }
}