{
  "contractName": "WallmartStoreRole",
  "abi": [
    {
      "inputs": [],
      "payable": false,
      "stateMutability": "nonpayable",
      "type": "constructor",
      "signature": "constructor"
    },
    {
      "anonymous": false,
      "inputs": [
        {
          "indexed": true,
          "name": "account",
          "type": "address"
        }
      ],
      "name": "WallmartStoreAdded",
      "type": "event",
      "signature": "0x495368486e35371df4170cb111d000bef4aea861a2a7fb7bb65dadbf04fe913f"
    },
    {
      "anonymous": false,
      "inputs": [
        {
          "indexed": true,
          "name": "account",
          "type": "address"
        }
      ],
      "name": "WallmartStoreRemoved",
      "type": "event",
      "signature": "0x7f263c91ed4a17e3359fc0c9ee843dbef6ffa996782c7d6c5e88fef5ebc3b001"
    },
    {
      "constant": true,
      "inputs": [
        {
          "name": "account",
          "type": "address"
        }
      ],
      "name": "isWallmartStore",
      "outputs": [
        {
          "name": "",
          "type": "bool"
        }
      ],
      "payable": false,
      "stateMutability": "view",
      "type": "function",
      "signature": "0x0256b978"
    },
    {
      "constant": false,
      "inputs": [
        {
          "name": "account",
          "type": "address"
        }
      ],
      "name": "addWallmartStore",
      "outputs": [],
      "payable": false,
      "stateMutability": "nonpayable",
      "type": "function",
      "signature": "0x12f5e501"
    },
    {
      "constant": false,
      "inputs": [],
      "name": "renounceWallmartStore",
      "outputs": [],
      "payable": false,
      "stateMutability": "nonpayable",
      "type": "function",
      "signature": "0x116b3845"
    }
  ],
  "bytecode": "0x608060405234801561001057600080fd5b506100293361002e640100000000026401000000009004565b6101e8565b61004f81600061009564010000000002610350179091906401000000009004565b8073ffffffffffffffffffffffffffffffffffffffff167f495368486e35371df4170cb111d000bef4aea861a2a7fb7bb65dadbf04fe913f60405160405180910390a250565b600073ffffffffffffffffffffffffffffffffffffffff168173ffffffffffffffffffffffffffffffffffffffff16141515156100d157600080fd5b6100ea8282610154640100000000026401000000009004565b1515156100f657600080fd5b60018260000160008373ffffffffffffffffffffffffffffffffffffffff1673ffffffffffffffffffffffffffffffffffffffff16815260200190815260200160002060006101000a81548160ff0219169083151502179055505050565b60008073ffffffffffffffffffffffffffffffffffffffff168273ffffffffffffffffffffffffffffffffffffffff161415151561019157600080fd5b8260000160008373ffffffffffffffffffffffffffffffffffffffff1673ffffffffffffffffffffffffffffffffffffffff16815260200190815260200160002060009054906101000a900460ff16905092915050565b61042c806101f76000396000f300608060405260043610610057576000357c0100000000000000000000000000000000000000000000000000000000900463ffffffff1680630256b9781461005c578063116b3845146100b757806312f5e501146100ce575b600080fd5b34801561006857600080fd5b5061009d600480360381019080803573ffffffffffffffffffffffffffffffffffffffff169060200190929190505050610111565b604051808215151515815260200191505060405180910390f35b3480156100c357600080fd5b506100cc61012e565b005b3480156100da57600080fd5b5061010f600480360381019080803573ffffffffffffffffffffffffffffffffffffffff169060200190929190505050610139565b005b600061012782600061015990919063ffffffff16565b9050919050565b610137336101ed565b565b61014233610111565b151561014d57600080fd5b61015681610247565b50565b60008073ffffffffffffffffffffffffffffffffffffffff168273ffffffffffffffffffffffffffffffffffffffff161415151561019657600080fd5b8260000160008373ffffffffffffffffffffffffffffffffffffffff1673ffffffffffffffffffffffffffffffffffffffff16815260200190815260200160002060009054906101000a900460ff16905092915050565b6102018160006102a190919063ffffffff16565b8073ffffffffffffffffffffffffffffffffffffffff167f7f263c91ed4a17e3359fc0c9ee843dbef6ffa996782c7d6c5e88fef5ebc3b00160405160405180910390a250565b61025b81600061035090919063ffffffff16565b8073ffffffffffffffffffffffffffffffffffffffff167f495368486e35371df4170cb111d000bef4aea861a2a7fb7bb65dadbf04fe913f60405160405180910390a250565b600073ffffffffffffffffffffffffffffffffffffffff168173ffffffffffffffffffffffffffffffffffffffff16141515156102dd57600080fd5b6102e78282610159565b15156102f257600080fd5b60008260000160008373ffffffffffffffffffffffffffffffffffffffff1673ffffffffffffffffffffffffffffffffffffffff16815260200190815260200160002060006101000a81548160ff0219169083151502179055505050565b600073ffffffffffffffffffffffffffffffffffffffff168173ffffffffffffffffffffffffffffffffffffffff161415151561038c57600080fd5b6103968282610159565b1515156103a257600080fd5b60018260000160008373ffffffffffffffffffffffffffffffffffffffff1673ffffffffffffffffffffffffffffffffffffffff16815260200190815260200160002060006101000a81548160ff02191690831515021790555050505600a165627a7a723058200a174678d86b9b714d3273d316b359491bad9c9af0b2daa00328d920fc62683a0029",
  "source": "pragma solidity ^0.4.24;\n\n// Import the library 'Roles'\nimport \"./Roles.sol\";\n\n// Define a contract 'WallmartStoreRole' to manage this role - add, remove, check\ncontract WallmartStoreRole {\n  using Roles for Roles.Role;\n  // Define 2 events, one for Adding, and other for Removing\n\n  event WallmartStoreAdded(address indexed account);\n  event WallmartStoreRemoved(address indexed account);\n  // Define a struct 'retailers' by inheriting from 'Roles' library, struct Role\n\n  Roles.Role wallmartStores;\n  // In the constructor make the address that deploys this contract the 1st retailer\n  constructor() public {\n    _addWallmartStore(msg.sender);\n  }\n\n  // Define a modifier that checks to see if msg.sender has the appropriate role\n  modifier onlyWallmartStore() {\n    require(isWallmartStore(msg.sender));\n    _;\n  }\n\n  // Define a function 'isRetailer' to check this role\n  function isWallmartStore(address account) public view returns (bool) {\n    return wallmartStores.has(account);\n  }\n\n  // Define a function 'addRetailer' that adds this role\n  function addWallmartStore(address account) public onlyWallmartStore {\n    _addWallmartStore(account);\n  }\n\n  // Define a function 'renounceRetailer' to renounce this role\n  function renounceWallmartStore() public {\n    _removeWallmartStore(msg.sender);\n  }\n\n  // Define an internal function '_addRetailer' to add this role, called by 'addRetailer'\n  function _addWallmartStore(address account) internal {\n    wallmartStores.add(account);\n    emit WallmartStoreAdded(account);\n  }\n\n  // Define an internal function '_removeRetailer' to remove this role, called by 'removeRetailer'\n  function _removeWallmartStore(address account) internal {\n    wallmartStores.remove(account);\n    emit WallmartStoreRemoved(account);\n  }\n}\n",
  "sourcePath": "/Users/husni/Projects/nd1309-Project-6b-Example-Template/project-6/contracts/itemaccesscontrol/WallmartStoreRole.sol",
  "compiler": {
    "name": "solc",
    "version": "0.4.24+commit.e67f0147.Emscripten.clang"
  },
  "schemaVersion": "3.0.5",
  "updatedAt": "2019-04-14T18:28:48.228Z",
  "devdoc": {
    "methods": {}
  },
  "userdoc": {
    "methods": {}
  }
}